{
  "contractName": "medicine",
  "abi": [
    {
      "inputs": [
        {
          "internalType": "uint256",
          "name": "",
          "type": "uint256"
        }
      ],
      "name": "med",
      "outputs": [
        {
          "internalType": "uint256",
          "name": "bid",
          "type": "uint256"
        },
        {
          "internalType": "uint256",
          "name": "phrid",
          "type": "uint256"
        },
        {
          "internalType": "uint256",
          "name": "distid",
          "type": "uint256"
        },
        {
          "internalType": "uint256",
          "name": "manuid",
          "type": "uint256"
        },
        {
          "internalType": "uint256",
          "name": "quantity",
          "type": "uint256"
        },
        {
          "internalType": "uint256",
          "name": "medid",
          "type": "uint256"
        }
      ],
      "stateMutability": "view",
      "type": "function"
    },
    {
      "inputs": [
        {
          "internalType": "uint256",
          "name": "",
          "type": "uint256"
        }
      ],
      "name": "pdetails",
      "outputs": [
        {
          "internalType": "uint256",
          "name": "bid",
          "type": "uint256"
        },
        {
          "internalType": "uint256",
          "name": "omid",
          "type": "uint256"
        },
        {
          "internalType": "uint256",
          "name": "userid",
          "type": "uint256"
        },
        {
          "internalType": "string",
          "name": "total",
          "type": "string"
        },
        {
          "internalType": "string",
          "name": "date",
          "type": "string"
        }
      ],
      "stateMutability": "view",
      "type": "function"
    },
    {
      "inputs": [],
      "name": "vcount",
      "outputs": [
        {
          "internalType": "uint256",
          "name": "",
          "type": "uint256"
        }
      ],
      "stateMutability": "view",
      "type": "function"
    },
    {
      "inputs": [],
      "name": "vcount1",
      "outputs": [
        {
          "internalType": "uint256",
          "name": "",
          "type": "uint256"
        }
      ],
      "stateMutability": "view",
      "type": "function"
    },
    {
      "inputs": [
        {
          "internalType": "uint256",
          "name": "_bid",
          "type": "uint256"
        },
        {
          "internalType": "uint256",
          "name": "_phrid",
          "type": "uint256"
        },
        {
          "internalType": "uint256",
          "name": "_distid",
          "type": "uint256"
        },
        {
          "internalType": "uint256",
          "name": "_manuid",
          "type": "uint256"
        },
        {
          "internalType": "uint256",
          "name": "_quantity",
          "type": "uint256"
        },
        {
          "internalType": "uint256",
          "name": "_medid",
          "type": "uint256"
        }
      ],
      "name": "add_info",
      "outputs": [],
      "stateMutability": "nonpayable",
      "type": "function"
    },
    {
      "inputs": [
        {
          "internalType": "uint256",
          "name": "_bid",
          "type": "uint256"
        },
        {
          "internalType": "uint256",
          "name": "_omid",
          "type": "uint256"
        },
        {
          "internalType": "uint256",
          "name": "_userid",
          "type": "uint256"
        },
        {
          "internalType": "string",
          "name": "_total",
          "type": "string"
        },
        {
          "internalType": "string",
          "name": "_date",
          "type": "string"
        }
      ],
      "name": "add_purchase_info",
      "outputs": [],
      "stateMutability": "nonpayable",
      "type": "function"
    }
  ],
  "bytecode": "0x608060405260008055600060025534801561001957600080fd5b50610c0c806100296000396000f3fe608060405234801561001057600080fd5b50600436106100625760003560e01c8063117f685a1461006757806386a0ce5e1461009b5780639f4f7566146100b9578063c75b95ac146100d7578063da55400e146100f3578063f07d8dd91461010f575b600080fd5b610081600480360381019061007c9190610463565b610144565b60405161009295949392919061052f565b60405180910390f35b6100a361028a565b6040516100b09190610590565b60405180910390f35b6100c1610290565b6040516100ce9190610590565b60405180910390f35b6100f160048036038101906100ec91906106e0565b610296565b005b61010d60048036038101906101089190610793565b61033e565b005b61012960048036038101906101249190610463565b6103dd565b60405161013b96959493929190610820565b60405180910390f35b6003602052806000526040600020600091509050806000015490806001015490806002015490806003018054610179906108b0565b80601f01602080910402602001604051908101604052809291908181526020018280546101a5906108b0565b80156101f25780601f106101c7576101008083540402835291602001916101f2565b820191906000526020600020905b8154815290600101906020018083116101d557829003601f168201915b505050505090806004018054610207906108b0565b80601f0160208091040260200160405190810160405280929190818152602001828054610233906108b0565b80156102805780601f1061025557610100808354040283529160200191610280565b820191906000526020600020905b81548152906001019060200180831161026357829003601f168201915b5050505050905085565b60005481565b60025481565b600260008154809291906102a990610910565b91905055506040518060a0016040528086815260200185815260200184815260200183815260200182815250600360006002548152602001908152602001600020600082015181600001556020820151816001015560408201518160020155606082015181600301908161031d9190610b04565b5060808201518160040190816103339190610b04565b509050505050505050565b60008081548092919061035090610910565b91905055506040518060c00160405280878152602001868152602001858152602001848152602001838152602001828152506001600080548152602001908152602001600020600082015181600001556020820151816001015560408201518160020155606082015181600301556080820151816004015560a08201518160050155905050505050505050565b60016020528060005260406000206000915090508060000154908060010154908060020154908060030154908060040154908060050154905086565b6000604051905090565b600080fd5b600080fd5b6000819050919050565b6104408161042d565b811461044b57600080fd5b50565b60008135905061045d81610437565b92915050565b60006020828403121561047957610478610423565b5b60006104878482850161044e565b91505092915050565b6104998161042d565b82525050565b600081519050919050565b600082825260208201905092915050565b60005b838110156104d95780820151818401526020810190506104be565b60008484015250505050565b6000601f19601f8301169050919050565b60006105018261049f565b61050b81856104aa565b935061051b8185602086016104bb565b610524816104e5565b840191505092915050565b600060a0820190506105446000830188610490565b6105516020830187610490565b61055e6040830186610490565b818103606083015261057081856104f6565b9050818103608083015261058481846104f6565b90509695505050505050565b60006020820190506105a56000830184610490565b92915050565b600080fd5b600080fd5b7f4e487b7100000000000000000000000000000000000000000000000000000000600052604160045260246000fd5b6105ed826104e5565b810181811067ffffffffffffffff8211171561060c5761060b6105b5565b5b80604052505050565b600061061f610419565b905061062b82826105e4565b919050565b600067ffffffffffffffff82111561064b5761064a6105b5565b5b610654826104e5565b9050602081019050919050565b82818337600083830152505050565b600061068361067e84610630565b610615565b90508281526020810184848401111561069f5761069e6105b0565b5b6106aa848285610661565b509392505050565b600082601f8301126106c7576106c66105ab565b5b81356106d7848260208601610670565b91505092915050565b600080600080600060a086880312156106fc576106fb610423565b5b600061070a8882890161044e565b955050602061071b8882890161044e565b945050604061072c8882890161044e565b935050606086013567ffffffffffffffff81111561074d5761074c610428565b5b610759888289016106b2565b925050608086013567ffffffffffffffff81111561077a57610779610428565b5b610786888289016106b2565b9150509295509295909350565b60008060008060008060c087890312156107b0576107af610423565b5b60006107be89828a0161044e565b96505060206107cf89828a0161044e565b95505060406107e089828a0161044e565b94505060606107f189828a0161044e565b935050608061080289828a0161044e565b92505060a061081389828a0161044e565b9150509295509295509295565b600060c0820190506108356000830189610490565b6108426020830188610490565b61084f6040830187610490565b61085c6060830186610490565b6108696080830185610490565b61087660a0830184610490565b979650505050505050565b7f4e487b7100000000000000000000000000000000000000000000000000000000600052602260045260246000fd5b600060028204905060018216806108c857607f821691505b6020821081036108db576108da610881565b5b50919050565b7f4e487b7100000000000000000000000000000000000000000000000000000000600052601160045260246000fd5b600061091b8261042d565b91507fffffffffffffffffffffffffffffffffffffffffffffffffffffffffffffffff820361094d5761094c6108e1565b5b600182019050919050565b60008190508160005260206000209050919050565b60006020601f8301049050919050565b600082821b905092915050565b6000600883026109ba7fffffffffffffffffffffffffffffffffffffffffffffffffffffffffffffffff8261097d565b6109c4868361097d565b95508019841693508086168417925050509392505050565b6000819050919050565b6000610a016109fc6109f78461042d565b6109dc565b61042d565b9050919050565b6000819050919050565b610a1b836109e6565b610a2f610a2782610a08565b84845461098a565b825550505050565b600090565b610a44610a37565b610a4f818484610a12565b505050565b5b81811015610a7357610a68600082610a3c565b600181019050610a55565b5050565b601f821115610ab857610a8981610958565b610a928461096d565b81016020851015610aa1578190505b610ab5610aad8561096d565b830182610a54565b50505b505050565b600082821c905092915050565b6000610adb60001984600802610abd565b1980831691505092915050565b6000610af48383610aca565b9150826002028217905092915050565b610b0d8261049f565b67ffffffffffffffff811115610b2657610b256105b5565b5b610b3082546108b0565b610b3b828285610a77565b600060209050601f831160018114610b6e5760008415610b5c578287015190505b610b668582610ae8565b865550610bce565b601f198416610b7c86610958565b60005b82811015610ba457848901518255600182019150602085019450602081019050610b7f565b86831015610bc15784890151610bbd601f891682610aca565b8355505b6001600288020188555050505b50505050505056fea2646970667358221220b3781b5acb11f0e19bbe44ca9f9990699e679cade57f13e6a7f8d76366bf66cd64736f6c63430008110033",
  "immutableReferences": {},
  "source": "pragma solidity >=0.4.22 <0.9.0;\r\n\r\ncontract medicine{\r\nuint public vcount = 0;\r\nmapping(uint => medicinedetails) public med;\r\nstruct medicinedetails{\r\n\tuint bid;\r\n\tuint phrid; \r\n\tuint distid;\r\n\tuint manuid;\r\n\tuint quantity;\r\n\tuint medid;\r\n\t\r\n\r\n}\r\nuint public vcount1 = 0;\r\nmapping(uint => purchasedetails) public pdetails;\r\nstruct purchasedetails{\r\n\tuint bid;\r\n\tuint omid; \r\n\tuint userid;\r\n\tstring total;\r\n\tstring date;\r\n\t\r\n\t\r\n\r\n}\r\n\r\nfunction add_info(uint _bid,uint _phrid,uint _distid,uint _manuid,uint _quantity,uint _medid)public{\r\n        vcount++;\r\n     med[vcount]=medicinedetails(_bid,_phrid,_distid,_manuid,_quantity,_medid);\r\n    }\r\n\r\nfunction add_purchase_info(uint _bid,uint _omid,uint _userid,string memory _total,string memory _date)public{\r\n        vcount1++;\r\n     pdetails[vcount1]=purchasedetails(_bid,_omid,_userid,_total,_date);\r\n    }\r\n\r\n}",
  "sourcePath": "C:\\Users\\jessi\\Desktop\\medicine delivery\\contracts\\medicine.sol",
  "compiler": {
    "name": "solc",
    "version": "0.8.17+commit.8df45f5f.Emscripten.clang"
  },
  "schemaVersion": "3.4.11",
  "updatedAt": "2023-01-27T10:04:34.727Z",
  "devdoc": {
    "kind": "dev",
    "methods": {},
    "version": 1
  },
  "userdoc": {
    "kind": "user",
    "methods": {},
    "version": 1
  }
}